{
  "contractName": "Kyc",
  "abi": [
    {
      "inputs": [],
      "stateMutability": "nonpayable",
      "type": "constructor"
    },
    {
      "inputs": [
        {
          "internalType": "string",
          "name": "_userName",
          "type": "string"
        },
        {
          "internalType": "string",
          "name": "_customerData",
          "type": "string"
        }
      ],
      "name": "addRequest",
      "outputs": [],
      "stateMutability": "nonpayable",
      "type": "function"
    },
    {
      "inputs": [
        {
          "internalType": "string",
          "name": "_userName",
          "type": "string"
        },
        {
          "internalType": "string",
          "name": "_customerData",
          "type": "string"
        }
      ],
      "name": "addCustomer",
      "outputs": [],
      "stateMutability": "nonpayable",
      "type": "function"
    },
    {
      "inputs": [
        {
          "internalType": "string",
          "name": "_userName",
          "type": "string"
        }
      ],
      "name": "removeRequest",
      "outputs": [],
      "stateMutability": "nonpayable",
      "type": "function"
    },
    {
      "inputs": [
        {
          "internalType": "string",
          "name": "_userName",
          "type": "string"
        }
      ],
      "name": "viewCustomer",
      "outputs": [
        {
          "internalType": "string",
          "name": "",
          "type": "string"
        },
        {
          "internalType": "string",
          "name": "",
          "type": "string"
        },
        {
          "internalType": "address",
          "name": "",
          "type": "address"
        },
        {
          "internalType": "bool",
          "name": "",
          "type": "bool"
        },
        {
          "internalType": "uint256",
          "name": "",
          "type": "uint256"
        },
        {
          "internalType": "uint256",
          "name": "",
          "type": "uint256"
        }
      ],
      "stateMutability": "view",
      "type": "function"
    },
    {
      "inputs": [
        {
          "internalType": "string",
          "name": "_userName",
          "type": "string"
        }
      ],
      "name": "upVote_Customers",
      "outputs": [],
      "stateMutability": "nonpayable",
      "type": "function"
    },
    {
      "inputs": [
        {
          "internalType": "string",
          "name": "_userName",
          "type": "string"
        }
      ],
      "name": "downVote_Customers",
      "outputs": [],
      "stateMutability": "nonpayable",
      "type": "function"
    },
    {
      "inputs": [
        {
          "internalType": "string",
          "name": "_userName",
          "type": "string"
        },
        {
          "internalType": "string",
          "name": "_newcustomerData",
          "type": "string"
        }
      ],
      "name": "modifyCustomer",
      "outputs": [],
      "stateMutability": "nonpayable",
      "type": "function"
    },
    {
      "inputs": [
        {
          "internalType": "address",
          "name": "_bankAddress",
          "type": "address"
        }
      ],
      "name": "getBankCompliants",
      "outputs": [
        {
          "internalType": "uint256",
          "name": "",
          "type": "uint256"
        }
      ],
      "stateMutability": "view",
      "type": "function"
    },
    {
      "inputs": [
        {
          "internalType": "address",
          "name": "_bankAddress",
          "type": "address"
        }
      ],
      "name": "viewBankDetails",
      "outputs": [
        {
          "internalType": "string",
          "name": "",
          "type": "string"
        },
        {
          "internalType": "address",
          "name": "",
          "type": "address"
        },
        {
          "internalType": "uint256",
          "name": "",
          "type": "uint256"
        },
        {
          "internalType": "bool",
          "name": "",
          "type": "bool"
        },
        {
          "internalType": "string",
          "name": "",
          "type": "string"
        },
        {
          "internalType": "uint256",
          "name": "",
          "type": "uint256"
        }
      ],
      "stateMutability": "view",
      "type": "function"
    },
    {
      "inputs": [
        {
          "internalType": "address",
          "name": "_bankAddress",
          "type": "address"
        }
      ],
      "name": "reportBank",
      "outputs": [],
      "stateMutability": "nonpayable",
      "type": "function"
    },
    {
      "inputs": [
        {
          "internalType": "string",
          "name": "_name",
          "type": "string"
        },
        {
          "internalType": "address",
          "name": "_bankAddress",
          "type": "address"
        },
        {
          "internalType": "string",
          "name": "_regNumber",
          "type": "string"
        }
      ],
      "name": "addBank",
      "outputs": [],
      "stateMutability": "nonpayable",
      "type": "function"
    },
    {
      "inputs": [
        {
          "internalType": "address",
          "name": "_bankAddress",
          "type": "address"
        },
        {
          "internalType": "bool",
          "name": "_voteStatus",
          "type": "bool"
        }
      ],
      "name": "modifyBank_isAllowedToVote",
      "outputs": [],
      "stateMutability": "nonpayable",
      "type": "function"
    },
    {
      "inputs": [
        {
          "internalType": "address",
          "name": "_bankAddress",
          "type": "address"
        }
      ],
      "name": "removeBank",
      "outputs": [],
      "stateMutability": "nonpayable",
      "type": "function"
    }
  ],
  "bytecode": "0x608060405234801561001057600080fd5b50336000806101000a81548173ffffffffffffffffffffffffffffffffffffffff021916908373ffffffffffffffffffffffffffffffffffffffff160217905550612379806100606000396000f3fe608060405234801561001057600080fd5b50600436106100cf5760003560e01c80639649650c1161008c578063b9da4af811610066578063b9da4af814610216578063ccfa8e7114610232578063df68614e1461024e578063f72860ca1461026a576100cf565b80639649650c146101c2578063a5a49800146101de578063b33e32cc146101fa576100cf565b80630dc5f277146100d4578063107925bb146100f05780633190abc0146101255780636cba00e6146101415780637eca91981461015d57806388cc8d8d1461018d575b600080fd5b6100ee60048036038101906100e99190611a1a565b610286565b005b61010a60048036038101906101059190611a1a565b610370565b60405161011c96959493929190611b60565b60405180910390f35b61013f600480360381019061013a9190611bcf565b61064d565b005b61015b60048036038101906101569190611a1a565b610855565b005b61017760048036038101906101729190611c73565b610970565b6040516101849190611ca0565b60405180910390f35b6101a760048036038101906101a29190611c73565b6109bc565b6040516101b996959493929190611cbb565b60405180910390f35b6101dc60048036038101906101d79190611c73565b610d81565b005b6101f860048036038101906101f39190611c73565b610f92565b005b610214600480360381019061020f9190611a1a565b611094565b005b610230600480360381019061022b9190611bcf565b61117e565b005b61024c60048036038101906102479190611d2a565b611356565b005b61026860048036038101906102639190611de1565b611605565b005b610284600480360381019061027f9190611bcf565b6116f3565b005b600073ffffffffffffffffffffffffffffffffffffffff166001826040516102ae9190611e5d565b908152602001604051809103902060050160009054906101000a900473ffffffffffffffffffffffffffffffffffffffff1673ffffffffffffffffffffffffffffffffffffffff1614610336576040517f08c379a000000000000000000000000000000000000000000000000000000000815260040161032d90611ec0565b60405180910390fd5b6001816040516103469190611e5d565b9081526020016040518091039020600401600081548092919061036890611f0f565b919050555050565b606080600080600080600073ffffffffffffffffffffffffffffffffffffffff166001886040516103a19190611e5d565b908152602001604051809103902060050160009054906101000a900473ffffffffffffffffffffffffffffffffffffffff1673ffffffffffffffffffffffffffffffffffffffff1603610429576040517f08c379a000000000000000000000000000000000000000000000000000000000815260040161042090611fc9565b60405180910390fd5b6001876040516104399190611e5d565b908152602001604051809103902060000160018860405161045a9190611e5d565b908152602001604051809103902060010160018960405161047b9190611e5d565b908152602001604051809103902060050160009054906101000a900473ffffffffffffffffffffffffffffffffffffffff1660018a6040516104bd9190611e5d565b908152602001604051809103902060020160009054906101000a900460ff1660018b6040516104ec9190611e5d565b90815260200160405180910390206004015460018c60405161050e9190611e5d565b90815260200160405180910390206003015485805461052c90612018565b80601f016020809104026020016040519081016040528092919081815260200182805461055890612018565b80156105a55780601f1061057a576101008083540402835291602001916105a5565b820191906000526020600020905b81548152906001019060200180831161058857829003601f168201915b505050505095508480546105b890612018565b80601f01602080910402602001604051908101604052809291908181526020018280546105e490612018565b80156106315780601f1061060657610100808354040283529160200191610631565b820191906000526020600020905b81548152906001019060200180831161061457829003601f168201915b5050505050945095509550955095509550955091939550919395565b600073ffffffffffffffffffffffffffffffffffffffff166001836040516106759190611e5d565b908152602001604051809103902060050160009054906101000a900473ffffffffffffffffffffffffffffffffffffffff1673ffffffffffffffffffffffffffffffffffffffff16146106fd576040517f08c379a00000000000000000000000000000000000000000000000000000000081526004016106f4906120e1565b60405180910390fd5b8160018360405161070e9190611e5d565b908152602001604051809103902060000190805190602001906107329291906117dd565b50806001836040516107449190611e5d565b908152602001604051809103902060010190805190602001906107689291906117dd565b503360018360405161077a9190611e5d565b908152602001604051809103902060050160006101000a81548173ffffffffffffffffffffffffffffffffffffffff021916908373ffffffffffffffffffffffffffffffffffffffff16021790555060006001836040516107db9190611e5d565b908152602001604051809103902060020160006101000a81548160ff02191690831515021790555060006001836040516108159190611e5d565b908152602001604051809103902060040181905550600060018360405161083c9190611e5d565b9081526020016040518091039020600301819055505050565b600073ffffffffffffffffffffffffffffffffffffffff1660038260405161087d9190611e5d565b908152602001604051809103902060010160009054906101000a900473ffffffffffffffffffffffffffffffffffffffff1673ffffffffffffffffffffffffffffffffffffffff1603610905576040517f08c379a00000000000000000000000000000000000000000000000000000000081526004016108fc9061214d565b60405180910390fd5b6003816040516109159190611e5d565b9081526020016040518091039020600080820160006109349190611863565b6001820160006101000a81549073ffffffffffffffffffffffffffffffffffffffff021916905560028201600061096b9190611863565b505050565b6000600260008373ffffffffffffffffffffffffffffffffffffffff1673ffffffffffffffffffffffffffffffffffffffff168152602001908152602001600020600201549050919050565b60606000806000606060008073ffffffffffffffffffffffffffffffffffffffff16600260008973ffffffffffffffffffffffffffffffffffffffff1673ffffffffffffffffffffffffffffffffffffffff16815260200190815260200160002060010160009054906101000a900473ffffffffffffffffffffffffffffffffffffffff1673ffffffffffffffffffffffffffffffffffffffff1603610a97576040517f08c379a0000000000000000000000000000000000000000000000000000000008152600401610a8e906121b9565b60405180910390fd5b600260008873ffffffffffffffffffffffffffffffffffffffff1673ffffffffffffffffffffffffffffffffffffffff168152602001908152602001600020600001600260008973ffffffffffffffffffffffffffffffffffffffff1673ffffffffffffffffffffffffffffffffffffffff16815260200190815260200160002060010160009054906101000a900473ffffffffffffffffffffffffffffffffffffffff16600260008a73ffffffffffffffffffffffffffffffffffffffff1673ffffffffffffffffffffffffffffffffffffffff16815260200190815260200160002060020154600260008b73ffffffffffffffffffffffffffffffffffffffff1673ffffffffffffffffffffffffffffffffffffffff16815260200190815260200160002060040160009054906101000a900460ff16600260008c73ffffffffffffffffffffffffffffffffffffffff1673ffffffffffffffffffffffffffffffffffffffff168152602001908152602001600020600501600260008d73ffffffffffffffffffffffffffffffffffffffff1673ffffffffffffffffffffffffffffffffffffffff16815260200190815260200160002060030154858054610c6090612018565b80601f0160208091040260200160405190810160405280929190818152602001828054610c8c90612018565b8015610cd95780601f10610cae57610100808354040283529160200191610cd9565b820191906000526020600020905b815481529060010190602001808311610cbc57829003601f168201915b50505050509550818054610cec90612018565b80601f0160208091040260200160405190810160405280929190818152602001828054610d1890612018565b8015610d655780601f10610d3a57610100808354040283529160200191610d65565b820191906000526020600020905b815481529060010190602001808311610d4857829003601f168201915b5050505050915095509550955095509550955091939550919395565b3360008054906101000a900473ffffffffffffffffffffffffffffffffffffffff1673ffffffffffffffffffffffffffffffffffffffff168173ffffffffffffffffffffffffffffffffffffffff1614610e10576040517f08c379a0000000000000000000000000000000000000000000000000000000008152600401610e0790612225565b60405180910390fd5b600073ffffffffffffffffffffffffffffffffffffffff16600260008473ffffffffffffffffffffffffffffffffffffffff1673ffffffffffffffffffffffffffffffffffffffff16815260200190815260200160002060010160009054906101000a900473ffffffffffffffffffffffffffffffffffffffff1673ffffffffffffffffffffffffffffffffffffffff1614610ee1576040517f08c379a0000000000000000000000000000000000000000000000000000000008152600401610ed890612291565b60405180910390fd5b600260008373ffffffffffffffffffffffffffffffffffffffff1673ffffffffffffffffffffffffffffffffffffffff16815260200190815260200160002060008082016000610f319190611863565b6001820160006101000a81549073ffffffffffffffffffffffffffffffffffffffff0219169055600282016000905560038201600090556004820160006101000a81549060ff0219169055600582016000610f8c9190611863565b50505050565b6003600260008373ffffffffffffffffffffffffffffffffffffffff1673ffffffffffffffffffffffffffffffffffffffff168152602001908152602001600020600201541115611039576000600260008373ffffffffffffffffffffffffffffffffffffffff1673ffffffffffffffffffffffffffffffffffffffff16815260200190815260200160002060040160006101000a81548160ff0219169083151502179055505b600260008273ffffffffffffffffffffffffffffffffffffffff1673ffffffffffffffffffffffffffffffffffffffff168152602001908152602001600020600201600081548092919061108c90611f0f565b919050555050565b600073ffffffffffffffffffffffffffffffffffffffff166001826040516110bc9190611e5d565b908152602001604051809103902060050160009054906101000a900473ffffffffffffffffffffffffffffffffffffffff1673ffffffffffffffffffffffffffffffffffffffff1614611144576040517f08c379a000000000000000000000000000000000000000000000000000000000815260040161113b90611ec0565b60405180910390fd5b6001816040516111549190611e5d565b9081526020016040518091039020600301600081548092919061117690611f0f565b919050555050565b600073ffffffffffffffffffffffffffffffffffffffff166001836040516111a69190611e5d565b908152602001604051809103902060050160009054906101000a900473ffffffffffffffffffffffffffffffffffffffff1673ffffffffffffffffffffffffffffffffffffffff160361122e576040517f08c379a000000000000000000000000000000000000000000000000000000000815260040161122590612323565b60405180910390fd5b8160038360405161123f9190611e5d565b908152602001604051809103902060000190805190602001906112639291906117dd565b50806003826040516112759190611e5d565b908152602001604051809103902060020190805190602001906112999291906117dd565b50336003836040516112ab9190611e5d565b908152602001604051809103902060010160006101000a81548173ffffffffffffffffffffffffffffffffffffffff021916908373ffffffffffffffffffffffffffffffffffffffff160217905550600260003373ffffffffffffffffffffffffffffffffffffffff1673ffffffffffffffffffffffffffffffffffffffff168152602001908152602001600020600301600081548092919061134d90611f0f565b91905055505050565b3360008054906101000a900473ffffffffffffffffffffffffffffffffffffffff1673ffffffffffffffffffffffffffffffffffffffff168173ffffffffffffffffffffffffffffffffffffffff16146113e5576040517f08c379a00000000000000000000000000000000000000000000000000000000081526004016113dc90612225565b60405180910390fd5b83600260008573ffffffffffffffffffffffffffffffffffffffff1673ffffffffffffffffffffffffffffffffffffffff168152602001908152602001600020600001908051906020019061143b9291906117dd565b5082600260008573ffffffffffffffffffffffffffffffffffffffff1673ffffffffffffffffffffffffffffffffffffffff16815260200190815260200160002060010160006101000a81548173ffffffffffffffffffffffffffffffffffffffff021916908373ffffffffffffffffffffffffffffffffffffffff16021790555081600260008573ffffffffffffffffffffffffffffffffffffffff1673ffffffffffffffffffffffffffffffffffffffff16815260200190815260200160002060050190805190602001906115139291906117dd565b506000600260008573ffffffffffffffffffffffffffffffffffffffff1673ffffffffffffffffffffffffffffffffffffffff168152602001908152602001600020600201819055506001600260008573ffffffffffffffffffffffffffffffffffffffff1673ffffffffffffffffffffffffffffffffffffffff16815260200190815260200160002060040160006101000a81548160ff0219169083151502179055506000600260008573ffffffffffffffffffffffffffffffffffffffff1673ffffffffffffffffffffffffffffffffffffffff1681526020019081526020016000206003018190555050505050565b3360008054906101000a900473ffffffffffffffffffffffffffffffffffffffff1673ffffffffffffffffffffffffffffffffffffffff168173ffffffffffffffffffffffffffffffffffffffff1614611694576040517f08c379a000000000000000000000000000000000000000000000000000000000815260040161168b90612225565b60405180910390fd5b81600260008573ffffffffffffffffffffffffffffffffffffffff1673ffffffffffffffffffffffffffffffffffffffff16815260200190815260200160002060040160006101000a81548160ff021916908315150217905550505050565b600073ffffffffffffffffffffffffffffffffffffffff1660018360405161171b9190611e5d565b908152602001604051809103902060050160009054906101000a900473ffffffffffffffffffffffffffffffffffffffff1673ffffffffffffffffffffffffffffffffffffffff16036117a3576040517f08c379a000000000000000000000000000000000000000000000000000000000815260040161179a90611fc9565b60405180910390fd5b806001836040516117b49190611e5d565b908152602001604051809103902060010190805190602001906117d89291906117dd565b505050565b8280546117e990612018565b90600052602060002090601f01602090048101928261180b5760008555611852565b82601f1061182457805160ff1916838001178555611852565b82800160010185558215611852579182015b82811115611851578251825591602001919060010190611836565b5b50905061185f91906118a3565b5090565b50805461186f90612018565b6000825580601f1061188157506118a0565b601f01602090049060005260206000209081019061189f91906118a3565b5b50565b5b808211156118bc5760008160009055506001016118a4565b5090565b6000604051905090565b600080fd5b600080fd5b600080fd5b600080fd5b6000601f19601f8301169050919050565b7f4e487b7100000000000000000000000000000000000000000000000000000000600052604160045260246000fd5b611927826118de565b810181811067ffffffffffffffff82111715611946576119456118ef565b5b80604052505050565b60006119596118c0565b9050611965828261191e565b919050565b600067ffffffffffffffff821115611985576119846118ef565b5b61198e826118de565b9050602081019050919050565b82818337600083830152505050565b60006119bd6119b88461196a565b61194f565b9050828152602081018484840111156119d9576119d86118d9565b5b6119e484828561199b565b509392505050565b600082601f830112611a0157611a006118d4565b5b8135611a118482602086016119aa565b91505092915050565b600060208284031215611a3057611a2f6118ca565b5b600082013567ffffffffffffffff811115611a4e57611a4d6118cf565b5b611a5a848285016119ec565b91505092915050565b600081519050919050565b600082825260208201905092915050565b60005b83811015611a9d578082015181840152602081019050611a82565b83811115611aac576000848401525b50505050565b6000611abd82611a63565b611ac78185611a6e565b9350611ad7818560208601611a7f565b611ae0816118de565b840191505092915050565b600073ffffffffffffffffffffffffffffffffffffffff82169050919050565b6000611b1682611aeb565b9050919050565b611b2681611b0b565b82525050565b60008115159050919050565b611b4181611b2c565b82525050565b6000819050919050565b611b5a81611b47565b82525050565b600060c0820190508181036000830152611b7a8189611ab2565b90508181036020830152611b8e8188611ab2565b9050611b9d6040830187611b1d565b611baa6060830186611b38565b611bb76080830185611b51565b611bc460a0830184611b51565b979650505050505050565b60008060408385031215611be657611be56118ca565b5b600083013567ffffffffffffffff811115611c0457611c036118cf565b5b611c10858286016119ec565b925050602083013567ffffffffffffffff811115611c3157611c306118cf565b5b611c3d858286016119ec565b9150509250929050565b611c5081611b0b565b8114611c5b57600080fd5b50565b600081359050611c6d81611c47565b92915050565b600060208284031215611c8957611c886118ca565b5b6000611c9784828501611c5e565b91505092915050565b6000602082019050611cb56000830184611b51565b92915050565b600060c0820190508181036000830152611cd58189611ab2565b9050611ce46020830188611b1d565b611cf16040830187611b51565b611cfe6060830186611b38565b8181036080830152611d108185611ab2565b9050611d1f60a0830184611b51565b979650505050505050565b600080600060608486031215611d4357611d426118ca565b5b600084013567ffffffffffffffff811115611d6157611d606118cf565b5b611d6d868287016119ec565b9350506020611d7e86828701611c5e565b925050604084013567ffffffffffffffff811115611d9f57611d9e6118cf565b5b611dab868287016119ec565b9150509250925092565b611dbe81611b2c565b8114611dc957600080fd5b50565b600081359050611ddb81611db5565b92915050565b60008060408385031215611df857611df76118ca565b5b6000611e0685828601611c5e565b9250506020611e1785828601611dcc565b9150509250929050565b600081905092915050565b6000611e3782611a63565b611e418185611e21565b9350611e51818560208601611a7f565b80840191505092915050565b6000611e698284611e2c565b915081905092915050565b7f637573746f6d65722069732070726573656e7420696e207468652062616e6b00600082015250565b6000611eaa601f83611a6e565b9150611eb582611e74565b602082019050919050565b60006020820190508181036000830152611ed981611e9d565b9050919050565b7f4e487b7100000000000000000000000000000000000000000000000000000000600052601160045260246000fd5b6000611f1a82611b47565b91507fffffffffffffffffffffffffffffffffffffffffffffffffffffffffffffffff8203611f4c57611f4b611ee0565b5b600182019050919050565b7f437573746f6d6572206973206e6f742070726573656e7420696e20746865206460008201527f6174616261736500000000000000000000000000000000000000000000000000602082015250565b6000611fb3602783611a6e565b9150611fbe82611f57565b604082019050919050565b60006020820190508181036000830152611fe281611fa6565b9050919050565b7f4e487b7100000000000000000000000000000000000000000000000000000000600052602260045260246000fd5b6000600282049050600182168061203057607f821691505b60208210810361204357612042611fe9565b5b50919050565b7f437573746f6d657220697320616c72656164792070726573656e742c20706c6560008201527f6173652063616c6c206d6f64696679437573746f6d657220746f20656469742060208201527f74686520637573746f6d65722064617461000000000000000000000000000000604082015250565b60006120cb605183611a6e565b91506120d682612049565b606082019050919050565b600060208201905081810360008301526120fa816120be565b9050919050565b7f637573746f6d6572206973206e6f7420617661696c61626c6500000000000000600082015250565b6000612137601983611a6e565b915061214282612101565b602082019050919050565b600060208201905081810360008301526121668161212a565b9050919050565b7f7468652062616e6b206973206e6f7420617661696c61626c6500000000000000600082015250565b60006121a3601983611a6e565b91506121ae8261216d565b602082019050919050565b600060208201905081810360008301526121d281612196565b9050919050565b7f6f6e6c7920666f722061646d696e000000000000000000000000000000000000600082015250565b600061220f600e83611a6e565b915061221a826121d9565b602082019050919050565b6000602082019050818103600083015261223e81612202565b9050919050565b7f62616e6b20617661696c61626c65000000000000000000000000000000000000600082015250565b600061227b600e83611a6e565b915061228682612245565b602082019050919050565b600060208201905081810360008301526122aa8161226e565b9050919050565b7f637573746f6d657220697320206e6f742070726573656e7420696e207468652060008201527f6c69737400000000000000000000000000000000000000000000000000000000602082015250565b600061230d602483611a6e565b9150612318826122b1565b604082019050919050565b6000602082019050818103600083015261233c81612300565b905091905056fea26469706673582212203d6a5a830417cdf5fdbd679e79f624f89cbf56c785b3b8868add2aa5855e605464736f6c634300080e0033",
  "immutableReferences": {},
  "source": "// SPDX-License-Identifier: GPL-3.0\r\npragma solidity 0.8.14;\r\n\r\ncontract Kyc{\r\n\r\n\r\n    struct Customer {\r\n        string userName;   \r\n        string data;\r\n        bool kycStatus;\r\n        uint downVotes;\r\n        uint upVotes;  \r\n        address bank;\r\n    }\r\n    \r\n    struct Bank {\r\n        string name;\r\n        address ethAddress;\r\n        uint compliantsReported;\r\n        uint kyc_Count;\r\n        bool isAllowedToVote;\r\n        string regNumber;\r\n    }\r\n\r\n    address admin;\r\n\r\n    struct kyc_Request {\r\n        string userName;\r\n        address bank;\r\n        string data;\r\n    }\r\n\r\n\r\n    mapping(string => Customer) customers;\r\n    \r\n\r\n    mapping(address => Bank) banks;\r\n    \r\n\r\n    mapping(string =>kyc_Request) kycRequests;\r\n    \r\n    \r\n\r\n    mapping(string=>mapping(address=>uint256)) upVotes;\r\n\r\n    //msg.sender as admin while deploying smart contracts\r\n    constructor()  {\r\n        admin = msg.sender;\r\n\r\n    }\r\n\r\n      //modifier to check for admin functionalities\r\n    modifier isAdmin(address _senderAddress){\r\n      require(_senderAddress == admin,\"only for admin\");\r\n      _;\r\n    }\r\n\r\n   \r\n    //////////////////////////////////bank interface///////////////////////////////////////////////////////////\r\n\r\n\r\n    \r\n    //this function is to add request for the customer\r\n    function addRequest (string memory _userName, string memory _customerData) public  {\r\n        require(customers[_userName].bank!= address(0),\"customer is  not present in the list\");\r\n        kycRequests[_userName].userName= _userName;\r\n        kycRequests[_customerData].data = _customerData;\r\n        kycRequests[_userName].bank= msg.sender;\r\n        banks[msg.sender].kyc_Count++;\r\n    }\r\n\r\n    //this function is for adding the new customer in to the list with the kyc status of the customer\r\n    function addCustomer(string memory _userName, string memory _customerData) public {\r\n        require(customers[_userName].bank == address(0), \"Customer is already present, please call modifyCustomer to edit the customer data\");\r\n        customers[_userName].userName = _userName;\r\n        customers[_userName].data = _customerData;\r\n        customers[_userName].bank = msg.sender;\r\n\r\n        //phase2 adding upvote and downvote and kyc status \r\n        customers[_userName].kycStatus= false;\r\n        customers[_userName].upVotes=0;\r\n        customers[_userName].downVotes=0;\r\n\r\n    }\r\n    //remove request for the customer if the customer name is available in the data\r\n    function removeRequest (string memory _userName) public  {\r\n        require(kycRequests[_userName].bank!= address(0),\"customer is not available\");\r\n        delete kycRequests[_userName];     \r\n    }\r\n    \r\n    //function allows a bank to view the customer details\r\n    function viewCustomer(string memory _userName) public view returns (string memory, string memory, address,bool,uint,uint) {\r\n        require(customers[_userName].bank != address(0), \"Customer is not present in the database\");\r\n        return (customers[_userName].userName, customers[_userName].data, customers[_userName].bank,customers[_userName].kycStatus,\r\n         customers[_userName].upVotes,customers[_userName].downVotes);\r\n    }\r\n\r\n   \r\n  //function allows a bank to upvote for a customer only when the customer data is present in the bank\r\n   function upVote_Customers(string memory _userName) public {\r\n       require(customers[_userName].bank == address(0),\"customer is present in the bank\");\r\n       customers[_userName].upVotes++;\r\n   }\r\n\r\n   //function allows a bank to downvote for a customer only when the customer data is present in the bank\r\n   function downVote_Customers(string memory _userName) public {\r\n       require(customers[_userName].bank== address(0),\"customer is present in the bank\");\r\n       customers[_userName].downVotes++;\r\n       \r\n   }\r\n\r\n     \r\n    //this function allows a bank to modify data\r\n    function modifyCustomer(string memory _userName, string memory _newcustomerData) public {\r\n        require(customers[_userName].bank != address(0), \"Customer is not present in the database\");\r\n        customers[_userName].data = _newcustomerData;\r\n    }    \r\n    \r\n    //function is used to fetch bank complaints friom the smart contracts\r\n    function getBankCompliants(address _bankAddress)public view returns(uint){\r\n        return banks[_bankAddress].compliantsReported;\r\n    }\r\n\r\n    //function is used to fetch the bank details\r\n    function viewBankDetails(address _bankAddress) public  view returns ( string memory , address, uint, bool, string memory,uint) {\r\n        require(banks[_bankAddress].ethAddress != address(0),\"the bank is not available\");\r\n        return (banks[_bankAddress].name, banks[_bankAddress].ethAddress,banks[_bankAddress].compliantsReported,banks[_bankAddress].isAllowedToVote,\r\n        banks[_bankAddress].regNumber,banks[_bankAddress].kyc_Count);\r\n    }\r\n\r\n    //this function is used to report any bank in the network\r\n    function reportBank(address _bankAddress) public {\r\n        if(banks[_bankAddress].compliantsReported > 3){\r\n            banks[_bankAddress].isAllowedToVote = false;\r\n        }\r\n\r\n        banks[_bankAddress].compliantsReported++;\r\n    }\r\n     ////////////////////admin interface//////////////////\r\n      \r\n      //function to addBank only by the admin to the kyc contract\r\n    function addBank(string memory _name,address _bankAddress,string memory _regNumber) public   isAdmin(msg.sender) {\r\n        banks[_bankAddress].name = _name;\r\n        banks[_bankAddress].ethAddress = _bankAddress;\r\n        banks[_bankAddress].regNumber = _regNumber;\r\n    //setting the compliantsReported , kyc permissions as allowed/true;\r\n        banks[_bankAddress].compliantsReported = 0;\r\n        banks[_bankAddress].isAllowedToVote = true;\r\n        banks[_bankAddress].kyc_Count=0;\r\n    }\r\n    \r\n    //this function can only be used to chnage the status of voting by the bank\r\n    function modifyBank_isAllowedToVote(address _bankAddress, bool _voteStatus) public isAdmin(msg.sender){\r\n        banks[_bankAddress].isAllowedToVote = _voteStatus;\r\n    }\r\n\r\n    //this function is used by the admin to remove a bank from the kyc contract\r\n    function removeBank(address _bankAddress) public isAdmin(msg.sender){\r\n        require(banks[_bankAddress].ethAddress == address(0),\"bank available\");\r\n\r\n        delete banks[_bankAddress];\r\n    }\r\n    \r\n}",
  "sourcePath": "C:\\Users\\kanch\\OneDrive\\Desktop\\Assignment\\contracts\\KYC.sol",
  "compiler": {
    "name": "solc",
    "version": "0.8.14+commit.80d49f37.Emscripten.clang"
  },
  "schemaVersion": "3.4.7",
  "updatedAt": "2022-06-06T02:39:13.491Z",
  "devdoc": {
    "kind": "dev",
    "methods": {},
    "version": 1
  },
  "userdoc": {
    "kind": "user",
    "methods": {},
    "version": 1
  }
}